{
  "_format": "hh-sol-artifact-1",
  "contractName": "CrowdfundingPlatform",
  "sourceName": "contracts/CrowdfundingPlatform.sol",
  "abi": [
    {
      "anonymous": false,
      "inputs": [
        {
          "indexed": false,
          "internalType": "uint256",
          "name": "projectId",
          "type": "uint256"
        },
        {
          "indexed": false,
          "internalType": "address",
          "name": "contributor",
          "type": "address"
        },
        {
          "indexed": false,
          "internalType": "uint256",
          "name": "amount",
          "type": "uint256"
        }
      ],
      "name": "ContributionMade",
      "type": "event"
    },
    {
      "anonymous": false,
      "inputs": [
        {
          "indexed": false,
          "internalType": "uint256",
          "name": "projectId",
          "type": "uint256"
        },
        {
          "indexed": false,
          "internalType": "address",
          "name": "owner",
          "type": "address"
        },
        {
          "indexed": false,
          "internalType": "uint256",
          "name": "fundingGoal",
          "type": "uint256"
        }
      ],
      "name": "ProjectCreated",
      "type": "event"
    },
    {
      "inputs": [
        {
          "internalType": "uint256",
          "name": "_projectId",
          "type": "uint256"
        }
      ],
      "name": "contribute",
      "outputs": [],
      "stateMutability": "payable",
      "type": "function"
    },
    {
      "inputs": [
        {
          "internalType": "string",
          "name": "_title",
          "type": "string"
        },
        {
          "internalType": "string",
          "name": "_description",
          "type": "string"
        },
        {
          "internalType": "uint256",
          "name": "_fundingGoal",
          "type": "uint256"
        },
        {
          "internalType": "uint256",
          "name": "_deadline",
          "type": "uint256"
        },
        {
          "internalType": "string[]",
          "name": "milestoneDescriptions",
          "type": "string[]"
        },
        {
          "internalType": "uint256[]",
          "name": "milestoneAmounts",
          "type": "uint256[]"
        }
      ],
      "name": "createProject",
      "outputs": [],
      "stateMutability": "nonpayable",
      "type": "function"
    },
    {
      "inputs": [
        {
          "internalType": "uint256",
          "name": "",
          "type": "uint256"
        },
        {
          "internalType": "address",
          "name": "",
          "type": "address"
        }
      ],
      "name": "hasVoted",
      "outputs": [
        {
          "internalType": "bool",
          "name": "",
          "type": "bool"
        }
      ],
      "stateMutability": "view",
      "type": "function"
    },
    {
      "inputs": [],
      "name": "projectCount",
      "outputs": [
        {
          "internalType": "uint256",
          "name": "",
          "type": "uint256"
        }
      ],
      "stateMutability": "view",
      "type": "function"
    },
    {
      "inputs": [
        {
          "internalType": "uint256",
          "name": "",
          "type": "uint256"
        }
      ],
      "name": "projects",
      "outputs": [
        {
          "internalType": "address payable",
          "name": "owner",
          "type": "address"
        },
        {
          "internalType": "string",
          "name": "title",
          "type": "string"
        },
        {
          "internalType": "string",
          "name": "description",
          "type": "string"
        },
        {
          "internalType": "uint256",
          "name": "fundingGoal",
          "type": "uint256"
        },
        {
          "internalType": "uint256",
          "name": "totalFunded",
          "type": "uint256"
        },
        {
          "internalType": "uint256",
          "name": "deadline",
          "type": "uint256"
        },
        {
          "internalType": "bool",
          "name": "isCompleted",
          "type": "bool"
        }
      ],
      "stateMutability": "view",
      "type": "function"
    },
    {
      "inputs": [
        {
          "internalType": "uint256",
          "name": "_projectId",
          "type": "uint256"
        },
        {
          "internalType": "uint256",
          "name": "_milestoneId",
          "type": "uint256"
        }
      ],
      "name": "releaseFunds",
      "outputs": [],
      "stateMutability": "nonpayable",
      "type": "function"
    },
    {
      "inputs": [
        {
          "internalType": "uint256",
          "name": "_projectId",
          "type": "uint256"
        },
        {
          "internalType": "uint256",
          "name": "_milestoneId",
          "type": "uint256"
        },
        {
          "internalType": "bool",
          "name": "_approve",
          "type": "bool"
        }
      ],
      "name": "voteOnMilestone",
      "outputs": [],
      "stateMutability": "nonpayable",
      "type": "function"
    }
  ],
  "bytecode": "0x6080604052348015600f57600080fd5b50610fd58061001f6000396000f3fe6080604052600436106100705760003560e01c8063438596321161004e57806343859632146100f7578063c1cbbca71461013f578063df7843ae14610152578063eba9bc961461017257600080fd5b80630e783d6d14610075578063107046bd1461009757806336fbad26146100d3575b600080fd5b34801561008157600080fd5b506100956100903660046109f2565b610192565b005b3480156100a357600080fd5b506100b76100b2366004610a30565b6102d7565b6040516100ca9796959493929190610a8f565b60405180910390f35b3480156100df57600080fd5b506100e960025481565b6040519081526020016100ca565b34801561010357600080fd5b5061012f610112366004610aee565b600060208181529281526040808220909352908152205460ff1681565b60405190151581526020016100ca565b61009561014d366004610a30565b610431565b34801561015e57600080fd5b5061009561016d366004610b2a565b610596565b34801561017e57600080fd5b5061009561018d366004610d17565b610804565b600083815260016020526040902060048101546101f65760405162461bcd60e51b815260206004820152601960248201527f4e6f20636f6e747269627574696f6e73206d616465207965740000000000000060448201526064015b60405180910390fd5b60008481526020818152604080832033845290915290205460ff161561024e5760405162461bcd60e51b815260206004820152600d60248201526c105b1c9958591e481d9bdd1959609a1b60448201526064016101ed565b6000848152602081815260408083203384529091528120805460ff191660011790556007820180548590811061028657610286610de9565b9060005260206000209060050201905082156102b8576003810180549060006102ae83610e15565b91905055506102d0565b6004810180549060006102ca83610e15565b91905055505b5050505050565b6001602081905260009182526040909120805491810180546001600160a01b039093169261030490610e2e565b80601f016020809104026020016040519081016040528092919081815260200182805461033090610e2e565b801561037d5780601f106103525761010080835404028352916020019161037d565b820191906000526020600020905b81548152906001019060200180831161036057829003601f168201915b50505050509080600201805461039290610e2e565b80601f01602080910402602001604051908101604052809291908181526020018280546103be90610e2e565b801561040b5780601f106103e05761010080835404028352916020019161040b565b820191906000526020600020905b8154815290600101906020018083116103ee57829003601f168201915b505050506003830154600484015460058501546006909501549394919390925060ff1687565b6000818152600160205260409020600581015442106104885760405162461bcd60e51b8152602060048201526013602482015272111958591b1a5b99481a185cc81c185cdcd959606a1b60448201526064016101ed565b600034116104e45760405162461bcd60e51b815260206004820152602360248201527f436f6e747269627574696f6e206d75737420626520677265617465722074686160448201526206e20360ec1b60648201526084016101ed565b806003015481600401541061053b5760405162461bcd60e51b815260206004820152601860248201527f46756e64696e6720676f616c20616c7265616479206d6574000000000000000060448201526064016101ed565b3481600401600082825461054f9190610e68565b909155505060408051838152336020820152348183015290517f0a4a91237423e0a1766a761c7cb029311d8b95d6b1b81db1b949a70c98b4e08e9181900360600190a15050565b600082815260016020526040902080546001600160a01b0316331461060e5760405162461bcd60e51b815260206004820152602860248201527f4f6e6c79207468652070726f6a656374206f776e65722063616e2072656c656160448201526773652066756e647360c01b60648201526084016101ed565b600781015482106106585760405162461bcd60e51b8152602060048201526014602482015273125b9d985b1a59081b5a5b195cdd1bdb9948125160621b60448201526064016101ed565b600081600701838154811061066f5761066f610de9565b60009182526020909120600590910201600281015490915060ff16156106e95760405162461bcd60e51b815260206004820152602960248201527f46756e647320616c72656164792072656c656173656420666f722074686973206044820152686d696c6573746f6e6560b81b60648201526084016101ed565b806004015481600301541161074a5760405162461bcd60e51b815260206004820152602160248201527f4d696c6573746f6e65206e6f7420617070726f766564206279206261636b65726044820152607360f81b60648201526084016101ed565b600181015460048301548111156107985760405162461bcd60e51b8152602060048201526012602482015271496e73756666696369656e742066756e647360701b60448201526064016101ed565b60028201805460ff191660011790556004830180548291906000906107be908490610e81565b909155505082546040516001600160a01b039091169082156108fc029083906000818181858888f193505050501580156107fc573d6000803e3d6000fd5b505050505050565b80518251146108555760405162461bcd60e51b815260206004820152601a60248201527f4d69736d6174636820696e206d696c6573746f6e65206461746100000000000060448201526064016101ed565b600254600090815260016020819052604090912080546001600160a01b031916331781559081016108868882610ee0565b50600281016108958782610ee0565b50600381018590556005810184905560068101805460ff1916905560005b835181101561098657816007016040518060a001604052808684815181106108dd576108dd610de9565b602002602001015181526020018584815181106108fc576108fc610de9565b602090810291909101810151825260008282018190526040830181905260609092018290528354600181018555938252902081519192600502019081906109439082610ee0565b506020820151600182810191909155604083015160028301805460ff191691151591909117905560608301516003830155608090920151600490910155016108b3565b506002805490600061099783610e15565b91905055507f1b9d0946c0a6f3b3a57782ad25a4553bd5bcf1f1a252068eafc757670aad573a60016002546109cc9190610e81565b60408051918252336020830152810187905260600160405180910390a150505050505050565b600080600060608486031215610a0757600080fd5b833592506020840135915060408401358015158114610a2557600080fd5b809150509250925092565b600060208284031215610a4257600080fd5b5035919050565b6000815180845260005b81811015610a6f57602081850181015186830182015201610a53565b506000602082860101526020601f19601f83011685010191505092915050565b6001600160a01b038816815260e060208201819052600090610ab390830189610a49565b8281036040840152610ac58189610a49565b9150508560608301528460808301528360a083015282151560c083015298975050505050505050565b60008060408385031215610b0157600080fd5b8235915060208301356001600160a01b0381168114610b1f57600080fd5b809150509250929050565b60008060408385031215610b3d57600080fd5b50508035926020909101359150565b634e487b7160e01b600052604160045260246000fd5b604051601f8201601f1916810167ffffffffffffffff81118282101715610b8b57610b8b610b4c565b604052919050565b600082601f830112610ba457600080fd5b813567ffffffffffffffff811115610bbe57610bbe610b4c565b610bd1601f8201601f1916602001610b62565b818152846020838601011115610be657600080fd5b816020850160208301376000918101602001919091529392505050565b600067ffffffffffffffff821115610c1d57610c1d610b4c565b5060051b60200190565b600082601f830112610c3857600080fd5b8135610c4b610c4682610c03565b610b62565b8082825260208201915060208360051b860101925085831115610c6d57600080fd5b602085015b83811015610caf57803567ffffffffffffffff811115610c9157600080fd5b610ca0886020838a0101610b93565b84525060209283019201610c72565b5095945050505050565b600082601f830112610cca57600080fd5b8135610cd8610c4682610c03565b8082825260208201915060208360051b860101925085831115610cfa57600080fd5b602085015b83811015610caf578035835260209283019201610cff565b60008060008060008060c08789031215610d3057600080fd5b863567ffffffffffffffff811115610d4757600080fd5b610d5389828a01610b93565b965050602087013567ffffffffffffffff811115610d7057600080fd5b610d7c89828a01610b93565b9550506040870135935060608701359250608087013567ffffffffffffffff811115610da757600080fd5b610db389828a01610c27565b92505060a087013567ffffffffffffffff811115610dd057600080fd5b610ddc89828a01610cb9565b9150509295509295509295565b634e487b7160e01b600052603260045260246000fd5b634e487b7160e01b600052601160045260246000fd5b600060018201610e2757610e27610dff565b5060010190565b600181811c90821680610e4257607f821691505b602082108103610e6257634e487b7160e01b600052602260045260246000fd5b50919050565b80820180821115610e7b57610e7b610dff565b92915050565b81810381811115610e7b57610e7b610dff565b601f821115610edb57806000526020600020601f840160051c81016020851015610ebb5750805b601f840160051c820191505b818110156102d05760008155600101610ec7565b505050565b815167ffffffffffffffff811115610efa57610efa610b4c565b610f0e81610f088454610e2e565b84610e94565b6020601f821160018114610f425760008315610f2a5750848201515b600019600385901b1c1916600184901b1784556102d0565b600084815260208120601f198516915b82811015610f725787850151825560209485019460019092019101610f52565b5084821015610f905786840151600019600387901b60f8161c191681555b50505050600190811b0190555056fea2646970667358221220b663582b2096f2fbbd01f32ae907d112c6fb0ab88196ab83123577ea4f3cedab64736f6c634300081b0033",
  "linkReferences": {},
  "deployedLinkReferences": {}
}